{
  "_format": "hh-sol-artifact-1",
  "contractName": "NFTMarketplace",
  "sourceName": "contracts/NFTMarketplace.sol",
  "abi": [
    {
      "inputs": [
        {
          "internalType": "uint256",
          "name": "_itemId",
          "type": "uint256"
        }
      ],
      "name": "buyNFTs",
      "outputs": [],
      "stateMutability": "payable",
      "type": "function"
    },
    {
      "inputs": [],
      "name": "fetchItems",
      "outputs": [
        {
          "components": [
            {
              "internalType": "uint256",
              "name": "itemid",
              "type": "uint256"
            },
            {
              "internalType": "address",
              "name": "seller",
              "type": "address"
            },
            {
              "internalType": "address",
              "name": "owner",
              "type": "address"
            },
            {
              "internalType": "uint256",
              "name": "price",
              "type": "uint256"
            },
            {
              "internalType": "address",
              "name": "nftAddr",
              "type": "address"
            },
            {
              "internalType": "uint256",
              "name": "tokenId",
              "type": "uint256"
            },
            {
              "internalType": "enum NFTMarketplace.itemState",
              "name": "state",
              "type": "uint8"
            },
            {
              "internalType": "bool",
              "name": "isSold",
              "type": "bool"
            }
          ],
          "internalType": "struct NFTMarketplace.Item[]",
          "name": "",
          "type": "tuple[]"
        }
      ],
      "stateMutability": "view",
      "type": "function"
    },
    {
      "inputs": [
        {
          "internalType": "uint256",
          "name": "_id",
          "type": "uint256"
        }
      ],
      "name": "getItem",
      "outputs": [
        {
          "components": [
            {
              "internalType": "uint256",
              "name": "itemid",
              "type": "uint256"
            },
            {
              "internalType": "address",
              "name": "seller",
              "type": "address"
            },
            {
              "internalType": "address",
              "name": "owner",
              "type": "address"
            },
            {
              "internalType": "uint256",
              "name": "price",
              "type": "uint256"
            },
            {
              "internalType": "address",
              "name": "nftAddr",
              "type": "address"
            },
            {
              "internalType": "uint256",
              "name": "tokenId",
              "type": "uint256"
            },
            {
              "internalType": "enum NFTMarketplace.itemState",
              "name": "state",
              "type": "uint8"
            },
            {
              "internalType": "bool",
              "name": "isSold",
              "type": "bool"
            }
          ],
          "internalType": "struct NFTMarketplace.Item",
          "name": "",
          "type": "tuple"
        }
      ],
      "stateMutability": "view",
      "type": "function"
    },
    {
      "inputs": [
        {
          "internalType": "address",
          "name": "_nftAddr",
          "type": "address"
        },
        {
          "internalType": "uint256",
          "name": "_tokenId",
          "type": "uint256"
        },
        {
          "internalType": "address",
          "name": "_newOwner",
          "type": "address"
        }
      ],
      "name": "giftNFT",
      "outputs": [
        {
          "internalType": "bool",
          "name": "",
          "type": "bool"
        }
      ],
      "stateMutability": "payable",
      "type": "function"
    },
    {
      "inputs": [
        {
          "internalType": "address",
          "name": "_nftAddr",
          "type": "address"
        },
        {
          "internalType": "uint256",
          "name": "_tokenId",
          "type": "uint256"
        },
        {
          "internalType": "uint256",
          "name": "_price",
          "type": "uint256"
        }
      ],
      "name": "sellNFT",
      "outputs": [
        {
          "internalType": "uint256",
          "name": "",
          "type": "uint256"
        }
      ],
      "stateMutability": "nonpayable",
      "type": "function"
    }
  ],
  "bytecode": "0x608060405234801561001057600080fd5b50611a65806100206000396000f3fe60806040526004361061004a5760003560e01c80633129e7731461004f578063ad78ba7b1461008c578063bbbbc92b146100b7578063c7da2a3e146100e7578063f779a19314610103575b600080fd5b34801561005b57600080fd5b5061007660048036038101906100719190611049565b610140565b60405161008391906111fa565b60405180910390f35b34801561009857600080fd5b506100a1610332565b6040516100ae9190611368565b60405180910390f35b6100d160048036038101906100cc91906113b6565b6105bf565b6040516100de9190611418565b60405180910390f35b61010160048036038101906100fc9190611049565b610731565b005b34801561010f57600080fd5b5061012a60048036038101906101259190611433565b610a90565b6040516101379190611495565b60405180910390f35b610148610f73565b816101536000610f4f565b811115610195576040517f08c379a000000000000000000000000000000000000000000000000000000000815260040161018c9061150d565b60405180910390fd5b6002600084815260200190815260200160002060405180610100016040529081600082015481526020016001820160009054906101000a900473ffffffffffffffffffffffffffffffffffffffff1673ffffffffffffffffffffffffffffffffffffffff1673ffffffffffffffffffffffffffffffffffffffff1681526020016002820160009054906101000a900473ffffffffffffffffffffffffffffffffffffffff1673ffffffffffffffffffffffffffffffffffffffff1673ffffffffffffffffffffffffffffffffffffffff168152602001600382015481526020016004820160009054906101000a900473ffffffffffffffffffffffffffffffffffffffff1673ffffffffffffffffffffffffffffffffffffffff1673ffffffffffffffffffffffffffffffffffffffff168152602001600582015481526020016006820160009054906101000a900460ff1660018111156102f9576102f86110c6565b5b600181111561030b5761030a6110c6565b5b81526020016006820160019054906101000a900460ff161515151581525050915050919050565b606060006103406000610f4f565b67ffffffffffffffff8111156103595761035861152d565b5b60405190808252806020026020018201604052801561039257816020015b61037f610f73565b8152602001906001900390816103775790505b5090506000805b6103a36000610f4f565b8110156105b657600015156002600083815260200190815260200160002060060160019054906101000a900460ff16151514156105a35760006002600083815260200190815260200160002090508060405180610100016040529081600082015481526020016001820160009054906101000a900473ffffffffffffffffffffffffffffffffffffffff1673ffffffffffffffffffffffffffffffffffffffff1673ffffffffffffffffffffffffffffffffffffffff1681526020016002820160009054906101000a900473ffffffffffffffffffffffffffffffffffffffff1673ffffffffffffffffffffffffffffffffffffffff1673ffffffffffffffffffffffffffffffffffffffff168152602001600382015481526020016004820160009054906101000a900473ffffffffffffffffffffffffffffffffffffffff1673ffffffffffffffffffffffffffffffffffffffff1673ffffffffffffffffffffffffffffffffffffffff168152602001600582015481526020016006820160009054906101000a900460ff166001811115610543576105426110c6565b5b6001811115610555576105546110c6565b5b81526020016006820160019054906101000a900460ff1615151515815250508484815181106105875761058661155c565b5b602002602001018190525060018361059f91906115ba565b9250505b80806105ae90611610565b915050610399565b50819250505090565b60003373ffffffffffffffffffffffffffffffffffffffff168473ffffffffffffffffffffffffffffffffffffffff16636352211e856040518263ffffffff1660e01b81526004016106119190611495565b60206040518083038186803b15801561062957600080fd5b505afa15801561063d573d6000803e3d6000fd5b505050506040513d601f19601f82011682018060405250810190610661919061166e565b73ffffffffffffffffffffffffffffffffffffffff16146106b7576040517f08c379a00000000000000000000000000000000000000000000000000000000081526004016106ae906116e7565b60405180910390fd5b8373ffffffffffffffffffffffffffffffffffffffff166323b872dd3384866040518463ffffffff1660e01b81526004016106f493929190611716565b600060405180830381600087803b15801561070e57600080fd5b505af1158015610722573d6000803e3d6000fd5b50505050600190509392505050565b8061073c6000610f4f565b81111561077e576040517f08c379a00000000000000000000000000000000000000000000000000000000081526004016107759061150d565b60405180910390fd5b600015156002600084815260200190815260200160002060060160019054906101000a900460ff161515146107e8576040517f08c379a00000000000000000000000000000000000000000000000000000000081526004016107df90611799565b60405180910390fd5b6000670de0b6b3a7640000600260008581526020019081526020016000206003015461081491906117b9565b905080341015610859576040517f08c379a000000000000000000000000000000000000000000000000000000000815260040161085090611885565b60405180910390fd5b60006002600085815260200190815260200160002060010160009054906101000a900473ffffffffffffffffffffffffffffffffffffffff169050336002600086815260200190815260200160002060020160006101000a81548173ffffffffffffffffffffffffffffffffffffffff021916908373ffffffffffffffffffffffffffffffffffffffff16021790555060016002600086815260200190815260200160002060060160016101000a81548160ff0219169083151502179055506109226001610f5d565b6002600085815260200190815260200160002060040160009054906101000a900473ffffffffffffffffffffffffffffffffffffffff1673ffffffffffffffffffffffffffffffffffffffff166323b872dd303360026000898152602001908152602001600020600501546040518463ffffffff1660e01b81526004016109ab93929190611716565b600060405180830381600087803b1580156109c557600080fd5b505af11580156109d9573d6000803e3d6000fd5b5050505060008173ffffffffffffffffffffffffffffffffffffffff1683604051610a03906118d6565b60006040518083038185875af1925050503d8060008114610a40576040519150601f19603f3d011682016040523d82523d6000602084013e610a45565b606091505b5050905080610a89576040517f08c379a0000000000000000000000000000000000000000000000000000000008152600401610a8090611937565b60405180910390fd5b5050505050565b6000808211610ad4576040517f08c379a0000000000000000000000000000000000000000000000000000000008152600401610acb906119a3565b60405180910390fd5b3073ffffffffffffffffffffffffffffffffffffffff168473ffffffffffffffffffffffffffffffffffffffff1663081812fc856040518263ffffffff1660e01b8152600401610b249190611495565b60206040518083038186803b158015610b3c57600080fd5b505afa158015610b50573d6000803e3d6000fd5b505050506040513d601f19601f82011682018060405250810190610b74919061166e565b73ffffffffffffffffffffffffffffffffffffffff1614610bca576040517f08c379a0000000000000000000000000000000000000000000000000000000008152600401610bc190611a0f565b60405180910390fd5b3373ffffffffffffffffffffffffffffffffffffffff168473ffffffffffffffffffffffffffffffffffffffff16636352211e856040518263ffffffff1660e01b8152600401610c1a9190611495565b60206040518083038186803b158015610c3257600080fd5b505afa158015610c46573d6000803e3d6000fd5b505050506040513d601f19601f82011682018060405250810190610c6a919061166e565b73ffffffffffffffffffffffffffffffffffffffff1614610cc0576040517f08c379a0000000000000000000000000000000000000000000000000000000008152600401610cb7906116e7565b60405180910390fd5b604051806101000160405280610cd66000610f4f565b81526020013373ffffffffffffffffffffffffffffffffffffffff1681526020013373ffffffffffffffffffffffffffffffffffffffff1681526020018381526020018573ffffffffffffffffffffffffffffffffffffffff16815260200184815260200160006001811115610d4f57610d4e6110c6565b5b81526020016000151581525060026000610d696000610f4f565b81526020019081526020016000206000820151816000015560208201518160010160006101000a81548173ffffffffffffffffffffffffffffffffffffffff021916908373ffffffffffffffffffffffffffffffffffffffff16021790555060408201518160020160006101000a81548173ffffffffffffffffffffffffffffffffffffffff021916908373ffffffffffffffffffffffffffffffffffffffff1602179055506060820151816003015560808201518160040160006101000a81548173ffffffffffffffffffffffffffffffffffffffff021916908373ffffffffffffffffffffffffffffffffffffffff16021790555060a0820151816005015560c08201518160060160006101000a81548160ff02191690836001811115610e9557610e946110c6565b5b021790555060e08201518160060160016101000a81548160ff0219169083151502179055509050508373ffffffffffffffffffffffffffffffffffffffff166323b872dd3330866040518463ffffffff1660e01b8152600401610efa93929190611716565b600060405180830381600087803b158015610f1457600080fd5b505af1158015610f28573d6000803e3d6000fd5b505050506000610f386000610f4f565b9050610f446000610f5d565b809150509392505050565b600081600001549050919050565b6001816000016000828254019250508190555050565b60405180610100016040528060008152602001600073ffffffffffffffffffffffffffffffffffffffff168152602001600073ffffffffffffffffffffffffffffffffffffffff16815260200160008152602001600073ffffffffffffffffffffffffffffffffffffffff1681526020016000815260200160006001811115610fff57610ffe6110c6565b5b81526020016000151581525090565b600080fd5b6000819050919050565b61102681611013565b811461103157600080fd5b50565b6000813590506110438161101d565b92915050565b60006020828403121561105f5761105e61100e565b5b600061106d84828501611034565b91505092915050565b61107f81611013565b82525050565b600073ffffffffffffffffffffffffffffffffffffffff82169050919050565b60006110b082611085565b9050919050565b6110c0816110a5565b82525050565b7f4e487b7100000000000000000000000000000000000000000000000000000000600052602160045260246000fd5b60028110611106576111056110c6565b5b50565b6000819050611117826110f5565b919050565b600061112782611109565b9050919050565b6111378161111c565b82525050565b60008115159050919050565b6111528161113d565b82525050565b6101008201600082015161116f6000850182611076565b50602082015161118260208501826110b7565b50604082015161119560408501826110b7565b5060608201516111a86060850182611076565b5060808201516111bb60808501826110b7565b5060a08201516111ce60a0850182611076565b5060c08201516111e160c085018261112e565b5060e08201516111f460e0850182611149565b50505050565b6000610100820190506112106000830184611158565b92915050565b600081519050919050565b600082825260208201905092915050565b6000819050602082019050919050565b610100820160008201516112596000850182611076565b50602082015161126c60208501826110b7565b50604082015161127f60408501826110b7565b5060608201516112926060850182611076565b5060808201516112a560808501826110b7565b5060a08201516112b860a0850182611076565b5060c08201516112cb60c085018261112e565b5060e08201516112de60e0850182611149565b50505050565b60006112f08383611242565b6101008301905092915050565b6000602082019050919050565b600061131582611216565b61131f8185611221565b935061132a83611232565b8060005b8381101561135b57815161134288826112e4565b975061134d836112fd565b92505060018101905061132e565b5085935050505092915050565b60006020820190508181036000830152611382818461130a565b905092915050565b611393816110a5565b811461139e57600080fd5b50565b6000813590506113b08161138a565b92915050565b6000806000606084860312156113cf576113ce61100e565b5b60006113dd868287016113a1565b93505060206113ee86828701611034565b92505060406113ff868287016113a1565b9150509250925092565b6114128161113d565b82525050565b600060208201905061142d6000830184611409565b92915050565b60008060006060848603121561144c5761144b61100e565b5b600061145a868287016113a1565b935050602061146b86828701611034565b925050604061147c86828701611034565b9150509250925092565b61148f81611013565b82525050565b60006020820190506114aa6000830184611486565b92915050565b600082825260208201905092915050565b7f496e76616c696420494400000000000000000000000000000000000000000000600082015250565b60006114f7600a836114b0565b9150611502826114c1565b602082019050919050565b60006020820190508181036000830152611526816114ea565b9050919050565b7f4e487b7100000000000000000000000000000000000000000000000000000000600052604160045260246000fd5b7f4e487b7100000000000000000000000000000000000000000000000000000000600052603260045260246000fd5b7f4e487b7100000000000000000000000000000000000000000000000000000000600052601160045260246000fd5b60006115c582611013565b91506115d083611013565b9250827fffffffffffffffffffffffffffffffffffffffffffffffffffffffffffffffff038211156116055761160461158b565b5b828201905092915050565b600061161b82611013565b91507fffffffffffffffffffffffffffffffffffffffffffffffffffffffffffffffff82141561164e5761164d61158b565b5b600182019050919050565b6000815190506116688161138a565b92915050565b6000602082840312156116845761168361100e565b5b600061169284828501611659565b91505092915050565b7f4e6f7420746865206f776e657200000000000000000000000000000000000000600082015250565b60006116d1600d836114b0565b91506116dc8261169b565b602082019050919050565b60006020820190508181036000830152611700816116c4565b9050919050565b611710816110a5565b82525050565b600060608201905061172b6000830186611707565b6117386020830185611707565b6117456040830184611486565b949350505050565b7f536f6c64206f7574000000000000000000000000000000000000000000000000600082015250565b60006117836008836114b0565b915061178e8261174d565b602082019050919050565b600060208201905081810360008301526117b281611776565b9050919050565b60006117c482611013565b91506117cf83611013565b9250817fffffffffffffffffffffffffffffffffffffffffffffffffffffffffffffffff04831182151516156118085761180761158b565b5b828202905092915050565b7f506c65617365207375626d6974207468652061736b696e67207072696365206960008201527f6e206f7264657220746f20636f6d706c65746520746865207075726368617365602082015250565b600061186f6040836114b0565b915061187a82611813565b604082019050919050565b6000602082019050818103600083015261189e81611862565b9050919050565b600081905092915050565b50565b60006118c06000836118a5565b91506118cb826118b0565b600082019050919050565b60006118e1826118b3565b9150819050919050565b7f5472616e73616374696f6e206661696c21000000000000000000000000000000600082015250565b60006119216011836114b0565b915061192c826118eb565b602082019050919050565b6000602082019050818103600083015261195081611914565b9050919050565b7f5072696365206d757374206265206174206c6561737420312077656900000000600082015250565b600061198d601c836114b0565b915061199882611957565b602082019050919050565b600060208201905081810360008301526119bc81611980565b9050919050565b7f4e6f7420617070726f7665640000000000000000000000000000000000000000600082015250565b60006119f9600c836114b0565b9150611a04826119c3565b602082019050919050565b60006020820190508181036000830152611a28816119ec565b905091905056fea2646970667358221220ba233e303e28f324a5be6f6a6364b57cd03fe26e697d3dc1a67f75e07072903a64736f6c63430008090033",
  "linkReferences": {},
  "deployedLinkReferences": {}
}